:100F3200C52F031383120B1C09008801861CA22FE4
:100F4200A52F861F0900A92F0B10881086100900F3
:100F52000B10881486130900FF30A100FF30A00097
:100F6200A00BB12FA10BAF2F08000530A400AD27B5
:100F7200A40BB82F0800FF30A100FF30A000A00B87
:100F8200C02FA10BBE2F080003138316403081002F
:100F920003138316823095008B01C8308B00031334
:100FA2008316FF3096000313831670308F000317E9
:100FB200831600308900031783160030880003135C
:100FC2008316823086008801003085000313831265
:100FD2008601003088000313831200308500881CCC
:100FE200F82FF32F0514BC270510BC27F02F881CFF
:0E0FF200FB2FF32F0514B6270510B627F02F9E
:04400E00F50FFF3F6C
:00000001FF
